{
  "_format": "hh-sol-artifact-1",
  "contractName": "MilesAwayNft",
  "sourceName": "contracts/MilesAwayNft.sol",
  "abi": [
    {
      "inputs": [],
      "stateMutability": "nonpayable",
      "type": "constructor"
    },
    {
      "anonymous": false,
      "inputs": [
        {
          "indexed": true,
          "internalType": "address",
          "name": "owner",
          "type": "address"
        },
        {
          "indexed": true,
          "internalType": "address",
          "name": "approved",
          "type": "address"
        },
        {
          "indexed": true,
          "internalType": "uint256",
          "name": "tokenId",
          "type": "uint256"
        }
      ],
      "name": "Approval",
      "type": "event"
    },
    {
      "anonymous": false,
      "inputs": [
        {
          "indexed": true,
          "internalType": "address",
          "name": "owner",
          "type": "address"
        },
        {
          "indexed": true,
          "internalType": "address",
          "name": "operator",
          "type": "address"
        },
        {
          "indexed": false,
          "internalType": "bool",
          "name": "approved",
          "type": "bool"
        }
      ],
      "name": "ApprovalForAll",
      "type": "event"
    },
    {
      "anonymous": false,
      "inputs": [
        {
          "indexed": true,
          "internalType": "address",
          "name": "from",
          "type": "address"
        },
        {
          "indexed": true,
          "internalType": "address",
          "name": "to",
          "type": "address"
        },
        {
          "indexed": true,
          "internalType": "uint256",
          "name": "tokenId",
          "type": "uint256"
        }
      ],
      "name": "Transfer",
      "type": "event"
    },
    {
      "inputs": [
        {
          "internalType": "address",
          "name": "to",
          "type": "address"
        },
        {
          "internalType": "uint256",
          "name": "tokenId",
          "type": "uint256"
        }
      ],
      "name": "approve",
      "outputs": [],
      "stateMutability": "nonpayable",
      "type": "function"
    },
    {
      "inputs": [
        {
          "internalType": "address",
          "name": "owner",
          "type": "address"
        }
      ],
      "name": "balanceOf",
      "outputs": [
        {
          "internalType": "uint256",
          "name": "",
          "type": "uint256"
        }
      ],
      "stateMutability": "view",
      "type": "function"
    },
    {
      "inputs": [
        {
          "internalType": "uint256",
          "name": "tokenId",
          "type": "uint256"
        }
      ],
      "name": "getApproved",
      "outputs": [
        {
          "internalType": "address",
          "name": "",
          "type": "address"
        }
      ],
      "stateMutability": "view",
      "type": "function"
    },
    {
      "inputs": [
        {
          "internalType": "address",
          "name": "owner",
          "type": "address"
        },
        {
          "internalType": "address",
          "name": "operator",
          "type": "address"
        }
      ],
      "name": "isApprovedForAll",
      "outputs": [
        {
          "internalType": "bool",
          "name": "",
          "type": "bool"
        }
      ],
      "stateMutability": "view",
      "type": "function"
    },
    {
      "inputs": [],
      "name": "name",
      "outputs": [
        {
          "internalType": "string",
          "name": "",
          "type": "string"
        }
      ],
      "stateMutability": "view",
      "type": "function"
    },
    {
      "inputs": [
        {
          "internalType": "uint256",
          "name": "tokenId",
          "type": "uint256"
        }
      ],
      "name": "ownerOf",
      "outputs": [
        {
          "internalType": "address",
          "name": "",
          "type": "address"
        }
      ],
      "stateMutability": "view",
      "type": "function"
    },
    {
      "inputs": [
        {
          "internalType": "address",
          "name": "to",
          "type": "address"
        },
        {
          "internalType": "string",
          "name": "uri",
          "type": "string"
        }
      ],
      "name": "safeMint",
      "outputs": [],
      "stateMutability": "nonpayable",
      "type": "function"
    },
    {
      "inputs": [
        {
          "internalType": "address",
          "name": "from",
          "type": "address"
        },
        {
          "internalType": "address",
          "name": "to",
          "type": "address"
        },
        {
          "internalType": "uint256",
          "name": "tokenId",
          "type": "uint256"
        }
      ],
      "name": "safeTransferFrom",
      "outputs": [],
      "stateMutability": "nonpayable",
      "type": "function"
    },
    {
      "inputs": [
        {
          "internalType": "address",
          "name": "from",
          "type": "address"
        },
        {
          "internalType": "address",
          "name": "to",
          "type": "address"
        },
        {
          "internalType": "uint256",
          "name": "tokenId",
          "type": "uint256"
        },
        {
          "internalType": "bytes",
          "name": "data",
          "type": "bytes"
        }
      ],
      "name": "safeTransferFrom",
      "outputs": [],
      "stateMutability": "nonpayable",
      "type": "function"
    },
    {
      "inputs": [
        {
          "internalType": "address",
          "name": "operator",
          "type": "address"
        },
        {
          "internalType": "bool",
          "name": "approved",
          "type": "bool"
        }
      ],
      "name": "setApprovalForAll",
      "outputs": [],
      "stateMutability": "nonpayable",
      "type": "function"
    },
    {
      "inputs": [
        {
          "internalType": "bytes4",
          "name": "interfaceId",
          "type": "bytes4"
        }
      ],
      "name": "supportsInterface",
      "outputs": [
        {
          "internalType": "bool",
          "name": "",
          "type": "bool"
        }
      ],
      "stateMutability": "view",
      "type": "function"
    },
    {
      "inputs": [],
      "name": "symbol",
      "outputs": [
        {
          "internalType": "string",
          "name": "",
          "type": "string"
        }
      ],
      "stateMutability": "view",
      "type": "function"
    },
    {
      "inputs": [
        {
          "internalType": "uint256",
          "name": "tokenId",
          "type": "uint256"
        }
      ],
      "name": "tokenURI",
      "outputs": [
        {
          "internalType": "string",
          "name": "",
          "type": "string"
        }
      ],
      "stateMutability": "view",
      "type": "function"
    },
    {
      "inputs": [
        {
          "internalType": "address",
          "name": "from",
          "type": "address"
        },
        {
          "internalType": "address",
          "name": "to",
          "type": "address"
        },
        {
          "internalType": "uint256",
          "name": "tokenId",
          "type": "uint256"
        }
      ],
      "name": "transferFrom",
      "outputs": [],
      "stateMutability": "nonpayable",
      "type": "function"
    }
  ],
  "bytecode": "0x6080604052600a6008553480156200001657600080fd5b506040518060400160405280600e81526020017f4d696c65732041776179204e46540000000000000000000000000000000000008152506040518060400160405280600381526020017f4d53410000000000000000000000000000000000000000000000000000000000815250816000908162000094919062000329565b508060019081620000a6919062000329565b50505062000410565b600081519050919050565b7f4e487b7100000000000000000000000000000000000000000000000000000000600052604160045260246000fd5b7f4e487b7100000000000000000000000000000000000000000000000000000000600052602260045260246000fd5b600060028204905060018216806200013157607f821691505b602082108103620001475762000146620000e9565b5b50919050565b60008190508160005260206000209050919050565b60006020601f8301049050919050565b600082821b905092915050565b600060088302620001b17fffffffffffffffffffffffffffffffffffffffffffffffffffffffffffffffff8262000172565b620001bd868362000172565b95508019841693508086168417925050509392505050565b6000819050919050565b6000819050919050565b60006200020a62000204620001fe84620001d5565b620001df565b620001d5565b9050919050565b6000819050919050565b6200022683620001e9565b6200023e620002358262000211565b8484546200017f565b825550505050565b600090565b6200025562000246565b620002628184846200021b565b505050565b5b818110156200028a576200027e6000826200024b565b60018101905062000268565b5050565b601f821115620002d957620002a3816200014d565b620002ae8462000162565b81016020851015620002be578190505b620002d6620002cd8562000162565b83018262000267565b50505b505050565b600082821c905092915050565b6000620002fe60001984600802620002de565b1980831691505092915050565b6000620003198383620002eb565b9150826002028217905092915050565b6200033482620000af565b67ffffffffffffffff81111562000350576200034f620000ba565b5b6200035c825462000118565b620003698282856200028e565b600060209050601f831160018114620003a157600084156200038c578287015190505b6200039885826200030b565b86555062000408565b601f198416620003b1866200014d565b60005b82811015620003db57848901518255600182019150602085019450602081019050620003b4565b86831015620003fb5784890151620003f7601f891682620002eb565b8355505b6001600288020188555050505b505050505050565b612d4680620004206000396000f3fe608060405234801561001057600080fd5b50600436106100ea5760003560e01c806370a082311161008c578063b88d4fde11610066578063b88d4fde1461025b578063c87b56dd14610277578063d204c45e146102a7578063e985e9c5146102c3576100ea565b806370a08231146101f157806395d89b4114610221578063a22cb4651461023f576100ea565b8063095ea7b3116100c8578063095ea7b31461016d57806323b872dd1461018957806342842e0e146101a55780636352211e146101c1576100ea565b806301ffc9a7146100ef57806306fdde031461011f578063081812fc1461013d575b600080fd5b61010960048036038101906101049190611b0c565b6102f3565b6040516101169190611b54565b60405180910390f35b6101276103d5565b6040516101349190611bff565b60405180910390f35b61015760048036038101906101529190611c57565b610467565b6040516101649190611cc5565b60405180910390f35b61018760048036038101906101829190611d0c565b6104ad565b005b6101a3600480360381019061019e9190611d4c565b6105c4565b005b6101bf60048036038101906101ba9190611d4c565b610624565b005b6101db60048036038101906101d69190611c57565b610644565b6040516101e89190611cc5565b60405180910390f35b61020b60048036038101906102069190611d9f565b6106ca565b6040516102189190611ddb565b60405180910390f35b610229610781565b6040516102369190611bff565b60405180910390f35b61025960048036038101906102549190611e22565b610813565b005b61027560048036038101906102709190611f97565b610829565b005b610291600480360381019061028c9190611c57565b61088b565b60405161029e9190611bff565b60405180910390f35b6102c160048036038101906102bc91906120bb565b61089d565b005b6102dd60048036038101906102d89190612117565b610913565b6040516102ea9190611b54565b60405180910390f35b60007f80ac58cd000000000000000000000000000000000000000000000000000000007bffffffffffffffffffffffffffffffffffffffffffffffffffffffff1916827bffffffffffffffffffffffffffffffffffffffffffffffffffffffff191614806103be57507f5b5e139f000000000000000000000000000000000000000000000000000000007bffffffffffffffffffffffffffffffffffffffffffffffffffffffff1916827bffffffffffffffffffffffffffffffffffffffffffffffffffffffff1916145b806103ce57506103cd826109a7565b5b9050919050565b6060600080546103e490612186565b80601f016020809104026020016040519081016040528092919081815260200182805461041090612186565b801561045d5780601f106104325761010080835404028352916020019161045d565b820191906000526020600020905b81548152906001019060200180831161044057829003601f168201915b5050505050905090565b600061047282610a11565b6004600083815260200190815260200160002060009054906101000a900473ffffffffffffffffffffffffffffffffffffffff169050919050565b60006104b882610644565b90508073ffffffffffffffffffffffffffffffffffffffff168373ffffffffffffffffffffffffffffffffffffffff1603610528576040517f08c379a000000000000000000000000000000000000000000000000000000000815260040161051f90612229565b60405180910390fd5b8073ffffffffffffffffffffffffffffffffffffffff16610547610a5c565b73ffffffffffffffffffffffffffffffffffffffff161480610576575061057581610570610a5c565b610913565b5b6105b5576040517f08c379a00000000000000000000000000000000000000000000000000000000081526004016105ac906122bb565b60405180910390fd5b6105bf8383610a64565b505050565b6105d56105cf610a5c565b82610b1d565b610614576040517f08c379a000000000000000000000000000000000000000000000000000000000815260040161060b9061234d565b60405180910390fd5b61061f838383610bb2565b505050565b61063f83838360405180602001604052806000815250610829565b505050565b60008061065083610eab565b9050600073ffffffffffffffffffffffffffffffffffffffff168173ffffffffffffffffffffffffffffffffffffffff16036106c1576040517f08c379a00000000000000000000000000000000000000000000000000000000081526004016106b8906123b9565b60405180910390fd5b80915050919050565b60008073ffffffffffffffffffffffffffffffffffffffff168273ffffffffffffffffffffffffffffffffffffffff160361073a576040517f08c379a00000000000000000000000000000000000000000000000000000000081526004016107319061244b565b60405180910390fd5b600360008373ffffffffffffffffffffffffffffffffffffffff1673ffffffffffffffffffffffffffffffffffffffff168152602001908152602001600020549050919050565b60606001805461079090612186565b80601f01602080910402602001604051908101604052809291908181526020018280546107bc90612186565b80156108095780601f106107de57610100808354040283529160200191610809565b820191906000526020600020905b8154815290600101906020018083116107ec57829003601f168201915b5050505050905090565b61082561081e610a5c565b8383610ee8565b5050565b61083a610834610a5c565b83610b1d565b610879576040517f08c379a00000000000000000000000000000000000000000000000000000000081526004016108709061234d565b60405180910390fd5b61088584848484611054565b50505050565b6060610896826110b0565b9050919050565b60006108a960076111c2565b90506008548111156108f0576040517f08c379a00000000000000000000000000000000000000000000000000000000081526004016108e7906124dd565b60405180910390fd5b6108fa60076111d0565b61090483826111e6565b61090e8183611204565b505050565b6000600560008473ffffffffffffffffffffffffffffffffffffffff1673ffffffffffffffffffffffffffffffffffffffff16815260200190815260200160002060008373ffffffffffffffffffffffffffffffffffffffff1673ffffffffffffffffffffffffffffffffffffffff16815260200190815260200160002060009054906101000a900460ff16905092915050565b60007f01ffc9a7000000000000000000000000000000000000000000000000000000007bffffffffffffffffffffffffffffffffffffffffffffffffffffffff1916827bffffffffffffffffffffffffffffffffffffffffffffffffffffffff1916149050919050565b610a1a81611271565b610a59576040517f08c379a0000000000000000000000000000000000000000000000000000000008152600401610a50906123b9565b60405180910390fd5b50565b600033905090565b816004600083815260200190815260200160002060006101000a81548173ffffffffffffffffffffffffffffffffffffffff021916908373ffffffffffffffffffffffffffffffffffffffff160217905550808273ffffffffffffffffffffffffffffffffffffffff16610ad783610644565b73ffffffffffffffffffffffffffffffffffffffff167f8c5be1e5ebec7d5bd14f71427d1e84f3dd0314c0f7b2291e5b200ac8c7c3b92560405160405180910390a45050565b600080610b2983610644565b90508073ffffffffffffffffffffffffffffffffffffffff168473ffffffffffffffffffffffffffffffffffffffff161480610b6b5750610b6a8185610913565b5b80610ba957508373ffffffffffffffffffffffffffffffffffffffff16610b9184610467565b73ffffffffffffffffffffffffffffffffffffffff16145b91505092915050565b8273ffffffffffffffffffffffffffffffffffffffff16610bd282610644565b73ffffffffffffffffffffffffffffffffffffffff1614610c28576040517f08c379a0000000000000000000000000000000000000000000000000000000008152600401610c1f9061256f565b60405180910390fd5b600073ffffffffffffffffffffffffffffffffffffffff168273ffffffffffffffffffffffffffffffffffffffff1603610c97576040517f08c379a0000000000000000000000000000000000000000000000000000000008152600401610c8e90612601565b60405180910390fd5b610ca483838360016112b2565b8273ffffffffffffffffffffffffffffffffffffffff16610cc482610644565b73ffffffffffffffffffffffffffffffffffffffff1614610d1a576040517f08c379a0000000000000000000000000000000000000000000000000000000008152600401610d119061256f565b60405180910390fd5b6004600082815260200190815260200160002060006101000a81549073ffffffffffffffffffffffffffffffffffffffff02191690556001600360008573ffffffffffffffffffffffffffffffffffffffff1673ffffffffffffffffffffffffffffffffffffffff168152602001908152602001600020600082825403925050819055506001600360008473ffffffffffffffffffffffffffffffffffffffff1673ffffffffffffffffffffffffffffffffffffffff16815260200190815260200160002060008282540192505081905550816002600083815260200190815260200160002060006101000a81548173ffffffffffffffffffffffffffffffffffffffff021916908373ffffffffffffffffffffffffffffffffffffffff160217905550808273ffffffffffffffffffffffffffffffffffffffff168473ffffffffffffffffffffffffffffffffffffffff167fddf252ad1be2c89b69c2b068fc378daa952ba7f163c4a11628f55a4df523b3ef60405160405180910390a4610ea683838360016113d8565b505050565b60006002600083815260200190815260200160002060009054906101000a900473ffffffffffffffffffffffffffffffffffffffff169050919050565b8173ffffffffffffffffffffffffffffffffffffffff168373ffffffffffffffffffffffffffffffffffffffff1603610f56576040517f08c379a0000000000000000000000000000000000000000000000000000000008152600401610f4d9061266d565b60405180910390fd5b80600560008573ffffffffffffffffffffffffffffffffffffffff1673ffffffffffffffffffffffffffffffffffffffff16815260200190815260200160002060008473ffffffffffffffffffffffffffffffffffffffff1673ffffffffffffffffffffffffffffffffffffffff16815260200190815260200160002060006101000a81548160ff0219169083151502179055508173ffffffffffffffffffffffffffffffffffffffff168373ffffffffffffffffffffffffffffffffffffffff167f17307eab39ab6107e8899845ad3d59bd9653f200f220920489ca2b5937696c31836040516110479190611b54565b60405180910390a3505050565b61105f848484610bb2565b61106b848484846113de565b6110aa576040517f08c379a00000000000000000000000000000000000000000000000000000000081526004016110a1906126ff565b60405180910390fd5b50505050565b60606110bb82610a11565b60006006600084815260200190815260200160002080546110db90612186565b80601f016020809104026020016040519081016040528092919081815260200182805461110790612186565b80156111545780601f1061112957610100808354040283529160200191611154565b820191906000526020600020905b81548152906001019060200180831161113757829003601f168201915b505050505090506000611165611565565b9050600081510361117a5781925050506111bd565b6000825111156111af57808260405160200161119792919061275b565b604051602081830303815290604052925050506111bd565b6111b88461157c565b925050505b919050565b600081600001549050919050565b6001816000016000828254019250508190555050565b6112008282604051806020016040528060008152506115e4565b5050565b61120d82611271565b61124c576040517f08c379a0000000000000000000000000000000000000000000000000000000008152600401611243906127f1565b60405180910390fd5b8060066000848152602001908152602001600020908161126c91906129bd565b505050565b60008073ffffffffffffffffffffffffffffffffffffffff1661129383610eab565b73ffffffffffffffffffffffffffffffffffffffff1614159050919050565b60018111156113d257600073ffffffffffffffffffffffffffffffffffffffff168473ffffffffffffffffffffffffffffffffffffffff16146113465780600360008673ffffffffffffffffffffffffffffffffffffffff1673ffffffffffffffffffffffffffffffffffffffff168152602001908152602001600020600082825461133e9190612abe565b925050819055505b600073ffffffffffffffffffffffffffffffffffffffff168373ffffffffffffffffffffffffffffffffffffffff16146113d15780600360008573ffffffffffffffffffffffffffffffffffffffff1673ffffffffffffffffffffffffffffffffffffffff16815260200190815260200160002060008282546113c99190612af2565b925050819055505b5b50505050565b50505050565b60006113ff8473ffffffffffffffffffffffffffffffffffffffff1661163f565b15611558578373ffffffffffffffffffffffffffffffffffffffff1663150b7a02611428610a5c565b8786866040518563ffffffff1660e01b815260040161144a9493929190612b7b565b6020604051808303816000875af192505050801561148657506040513d601f19601f820116820180604052508101906114839190612bdc565b60015b611508573d80600081146114b6576040519150601f19603f3d011682016040523d82523d6000602084013e6114bb565b606091505b506000815103611500576040517f08c379a00000000000000000000000000000000000000000000000000000000081526004016114f7906126ff565b60405180910390fd5b805181602001fd5b63150b7a0260e01b7bffffffffffffffffffffffffffffffffffffffffffffffffffffffff1916817bffffffffffffffffffffffffffffffffffffffffffffffffffffffff19161491505061155d565b600190505b949350505050565b606060405180602001604052806000815250905090565b606061158782610a11565b6000611591611565565b905060008151116115b157604051806020016040528060008152506115dc565b806115bb84611662565b6040516020016115cc92919061275b565b6040516020818303038152906040525b915050919050565b6115ee8383611730565b6115fb60008484846113de565b61163a576040517f08c379a0000000000000000000000000000000000000000000000000000000008152600401611631906126ff565b60405180910390fd5b505050565b6000808273ffffffffffffffffffffffffffffffffffffffff163b119050919050565b6060600060016116718461194d565b01905060008167ffffffffffffffff8111156116905761168f611e6c565b5b6040519080825280601f01601f1916602001820160405280156116c25781602001600182028036833780820191505090505b509050600082602001820190505b600115611725578080600190039150507f3031323334353637383961626364656600000000000000000000000000000000600a86061a8153600a858161171957611718612c09565b5b049450600085036116d0575b819350505050919050565b600073ffffffffffffffffffffffffffffffffffffffff168273ffffffffffffffffffffffffffffffffffffffff160361179f576040517f08c379a000000000000000000000000000000000000000000000000000000000815260040161179690612c84565b60405180910390fd5b6117a881611271565b156117e8576040517f08c379a00000000000000000000000000000000000000000000000000000000081526004016117df90612cf0565b60405180910390fd5b6117f66000838360016112b2565b6117ff81611271565b1561183f576040517f08c379a000000000000000000000000000000000000000000000000000000000815260040161183690612cf0565b60405180910390fd5b6001600360008473ffffffffffffffffffffffffffffffffffffffff1673ffffffffffffffffffffffffffffffffffffffff16815260200190815260200160002060008282540192505081905550816002600083815260200190815260200160002060006101000a81548173ffffffffffffffffffffffffffffffffffffffff021916908373ffffffffffffffffffffffffffffffffffffffff160217905550808273ffffffffffffffffffffffffffffffffffffffff16600073ffffffffffffffffffffffffffffffffffffffff167fddf252ad1be2c89b69c2b068fc378daa952ba7f163c4a11628f55a4df523b3ef60405160405180910390a46119496000838360016113d8565b5050565b600080600090507a184f03e93ff9f4daa797ed6e38ed64bf6a1f01000000000000000083106119ab577a184f03e93ff9f4daa797ed6e38ed64bf6a1f01000000000000000083816119a1576119a0612c09565b5b0492506040810190505b6d04ee2d6d415b85acef810000000083106119e8576d04ee2d6d415b85acef810000000083816119de576119dd612c09565b5b0492506020810190505b662386f26fc100008310611a1757662386f26fc100008381611a0d57611a0c612c09565b5b0492506010810190505b6305f5e1008310611a40576305f5e1008381611a3657611a35612c09565b5b0492506008810190505b6127108310611a65576127108381611a5b57611a5a612c09565b5b0492506004810190505b60648310611a885760648381611a7e57611a7d612c09565b5b0492506002810190505b600a8310611a97576001810190505b80915050919050565b6000604051905090565b600080fd5b600080fd5b60007fffffffff0000000000000000000000000000000000000000000000000000000082169050919050565b611ae981611ab4565b8114611af457600080fd5b50565b600081359050611b0681611ae0565b92915050565b600060208284031215611b2257611b21611aaa565b5b6000611b3084828501611af7565b91505092915050565b60008115159050919050565b611b4e81611b39565b82525050565b6000602082019050611b696000830184611b45565b92915050565b600081519050919050565b600082825260208201905092915050565b60005b83811015611ba9578082015181840152602081019050611b8e565b60008484015250505050565b6000601f19601f8301169050919050565b6000611bd182611b6f565b611bdb8185611b7a565b9350611beb818560208601611b8b565b611bf481611bb5565b840191505092915050565b60006020820190508181036000830152611c198184611bc6565b905092915050565b6000819050919050565b611c3481611c21565b8114611c3f57600080fd5b50565b600081359050611c5181611c2b565b92915050565b600060208284031215611c6d57611c6c611aaa565b5b6000611c7b84828501611c42565b91505092915050565b600073ffffffffffffffffffffffffffffffffffffffff82169050919050565b6000611caf82611c84565b9050919050565b611cbf81611ca4565b82525050565b6000602082019050611cda6000830184611cb6565b92915050565b611ce981611ca4565b8114611cf457600080fd5b50565b600081359050611d0681611ce0565b92915050565b60008060408385031215611d2357611d22611aaa565b5b6000611d3185828601611cf7565b9250506020611d4285828601611c42565b9150509250929050565b600080600060608486031215611d6557611d64611aaa565b5b6000611d7386828701611cf7565b9350506020611d8486828701611cf7565b9250506040611d9586828701611c42565b9150509250925092565b600060208284031215611db557611db4611aaa565b5b6000611dc384828501611cf7565b91505092915050565b611dd581611c21565b82525050565b6000602082019050611df06000830184611dcc565b92915050565b611dff81611b39565b8114611e0a57600080fd5b50565b600081359050611e1c81611df6565b92915050565b60008060408385031215611e3957611e38611aaa565b5b6000611e4785828601611cf7565b9250506020611e5885828601611e0d565b9150509250929050565b600080fd5b600080fd5b7f4e487b7100000000000000000000000000000000000000000000000000000000600052604160045260246000fd5b611ea482611bb5565b810181811067ffffffffffffffff82111715611ec357611ec2611e6c565b5b80604052505050565b6000611ed6611aa0565b9050611ee28282611e9b565b919050565b600067ffffffffffffffff821115611f0257611f01611e6c565b5b611f0b82611bb5565b9050602081019050919050565b82818337600083830152505050565b6000611f3a611f3584611ee7565b611ecc565b905082815260208101848484011115611f5657611f55611e67565b5b611f61848285611f18565b509392505050565b600082601f830112611f7e57611f7d611e62565b5b8135611f8e848260208601611f27565b91505092915050565b60008060008060808587031215611fb157611fb0611aaa565b5b6000611fbf87828801611cf7565b9450506020611fd087828801611cf7565b9350506040611fe187828801611c42565b925050606085013567ffffffffffffffff81111561200257612001611aaf565b5b61200e87828801611f69565b91505092959194509250565b600067ffffffffffffffff82111561203557612034611e6c565b5b61203e82611bb5565b9050602081019050919050565b600061205e6120598461201a565b611ecc565b90508281526020810184848401111561207a57612079611e67565b5b612085848285611f18565b509392505050565b600082601f8301126120a2576120a1611e62565b5b81356120b284826020860161204b565b91505092915050565b600080604083850312156120d2576120d1611aaa565b5b60006120e085828601611cf7565b925050602083013567ffffffffffffffff81111561210157612100611aaf565b5b61210d8582860161208d565b9150509250929050565b6000806040838503121561212e5761212d611aaa565b5b600061213c85828601611cf7565b925050602061214d85828601611cf7565b9150509250929050565b7f4e487b7100000000000000000000000000000000000000000000000000000000600052602260045260246000fd5b6000600282049050600182168061219e57607f821691505b6020821081036121b1576121b0612157565b5b50919050565b7f4552433732313a20617070726f76616c20746f2063757272656e74206f776e6560008201527f7200000000000000000000000000000000000000000000000000000000000000602082015250565b6000612213602183611b7a565b915061221e826121b7565b604082019050919050565b6000602082019050818103600083015261224281612206565b9050919050565b7f4552433732313a20617070726f76652063616c6c6572206973206e6f7420746f60008201527f6b656e206f776e6572206f7220617070726f76656420666f7220616c6c000000602082015250565b60006122a5603d83611b7a565b91506122b082612249565b604082019050919050565b600060208201905081810360008301526122d481612298565b9050919050565b7f4552433732313a2063616c6c6572206973206e6f7420746f6b656e206f776e6560008201527f72206f7220617070726f76656400000000000000000000000000000000000000602082015250565b6000612337602d83611b7a565b9150612342826122db565b604082019050919050565b600060208201905081810360008301526123668161232a565b9050919050565b7f4552433732313a20696e76616c696420746f6b656e2049440000000000000000600082015250565b60006123a3601883611b7a565b91506123ae8261236d565b602082019050919050565b600060208201905081810360008301526123d281612396565b9050919050565b7f4552433732313a2061646472657373207a65726f206973206e6f74206120766160008201527f6c6964206f776e65720000000000000000000000000000000000000000000000602082015250565b6000612435602983611b7a565b9150612440826123d9565b604082019050919050565b6000602082019050818103600083015261246481612428565b9050919050565b7f536f7272792c20616c6c204e4654732068617665206265656e206d696e74656460008201527f2100000000000000000000000000000000000000000000000000000000000000602082015250565b60006124c7602183611b7a565b91506124d28261246b565b604082019050919050565b600060208201905081810360008301526124f6816124ba565b9050919050565b7f4552433732313a207472616e736665722066726f6d20696e636f72726563742060008201527f6f776e6572000000000000000000000000000000000000000000000000000000602082015250565b6000612559602583611b7a565b9150612564826124fd565b604082019050919050565b600060208201905081810360008301526125888161254c565b9050919050565b7f4552433732313a207472616e7366657220746f20746865207a65726f2061646460008201527f7265737300000000000000000000000000000000000000000000000000000000602082015250565b60006125eb602483611b7a565b91506125f68261258f565b604082019050919050565b6000602082019050818103600083015261261a816125de565b9050919050565b7f4552433732313a20617070726f766520746f2063616c6c657200000000000000600082015250565b6000612657601983611b7a565b915061266282612621565b602082019050919050565b600060208201905081810360008301526126868161264a565b9050919050565b7f4552433732313a207472616e7366657220746f206e6f6e20455243373231526560008201527f63656976657220696d706c656d656e7465720000000000000000000000000000602082015250565b60006126e9603283611b7a565b91506126f48261268d565b604082019050919050565b60006020820190508181036000830152612718816126dc565b9050919050565b600081905092915050565b600061273582611b6f565b61273f818561271f565b935061274f818560208601611b8b565b80840191505092915050565b6000612767828561272a565b9150612773828461272a565b91508190509392505050565b7f45524337323155524953746f726167653a2055524920736574206f66206e6f6e60008201527f6578697374656e7420746f6b656e000000000000000000000000000000000000602082015250565b60006127db602e83611b7a565b91506127e68261277f565b604082019050919050565b6000602082019050818103600083015261280a816127ce565b9050919050565b60008190508160005260206000209050919050565b60006020601f8301049050919050565b600082821b905092915050565b6000600883026128737fffffffffffffffffffffffffffffffffffffffffffffffffffffffffffffffff82612836565b61287d8683612836565b95508019841693508086168417925050509392505050565b6000819050919050565b60006128ba6128b56128b084611c21565b612895565b611c21565b9050919050565b6000819050919050565b6128d48361289f565b6128e86128e0826128c1565b848454612843565b825550505050565b600090565b6128fd6128f0565b6129088184846128cb565b505050565b5b8181101561292c576129216000826128f5565b60018101905061290e565b5050565b601f8211156129715761294281612811565b61294b84612826565b8101602085101561295a578190505b61296e61296685612826565b83018261290d565b50505b505050565b600082821c905092915050565b600061299460001984600802612976565b1980831691505092915050565b60006129ad8383612983565b9150826002028217905092915050565b6129c682611b6f565b67ffffffffffffffff8111156129df576129de611e6c565b5b6129e98254612186565b6129f4828285612930565b600060209050601f831160018114612a275760008415612a15578287015190505b612a1f85826129a1565b865550612a87565b601f198416612a3586612811565b60005b82811015612a5d57848901518255600182019150602085019450602081019050612a38565b86831015612a7a5784890151612a76601f891682612983565b8355505b6001600288020188555050505b505050505050565b7f4e487b7100000000000000000000000000000000000000000000000000000000600052601160045260246000fd5b6000612ac982611c21565b9150612ad483611c21565b9250828203905081811115612aec57612aeb612a8f565b5b92915050565b6000612afd82611c21565b9150612b0883611c21565b9250828201905080821115612b2057612b1f612a8f565b5b92915050565b600081519050919050565b600082825260208201905092915050565b6000612b4d82612b26565b612b578185612b31565b9350612b67818560208601611b8b565b612b7081611bb5565b840191505092915050565b6000608082019050612b906000830187611cb6565b612b9d6020830186611cb6565b612baa6040830185611dcc565b8181036060830152612bbc8184612b42565b905095945050505050565b600081519050612bd681611ae0565b92915050565b600060208284031215612bf257612bf1611aaa565b5b6000612c0084828501612bc7565b91505092915050565b7f4e487b7100000000000000000000000000000000000000000000000000000000600052601260045260246000fd5b7f4552433732313a206d696e7420746f20746865207a65726f2061646472657373600082015250565b6000612c6e602083611b7a565b9150612c7982612c38565b602082019050919050565b60006020820190508181036000830152612c9d81612c61565b9050919050565b7f4552433732313a20746f6b656e20616c7265616479206d696e74656400000000600082015250565b6000612cda601c83611b7a565b9150612ce582612ca4565b602082019050919050565b60006020820190508181036000830152612d0981612ccd565b905091905056fea2646970667358221220a7b99f3e7ca78ffe5c4415717cc3763c121c9f6ef6ab87c955ba21aea29c3ec164736f6c63430008110033",
  "linkReferences": {},
  "deployedLinkReferences": {}
}